:020000040800F2
:100000005045002005010008EF1300085F120008AA
:10001000ED130008A5050008752600080000000083
:10002000000000000000000000000000952400080F
:10003000A7050008000000005924000897240008C4
:100040001F0100081F0100081F0100081F01000810
:100050001F0100081F0100081F0100081F01000800
:100060001F0100081F0100081F0100081F010008F0
:100070001F0100081F0100081F0100081F010008E0
:100080001F0100081F0100081F0100081F010008D0
:100090001F0100081F0100081F0100081F010008C0
:1000A0001F0100081F0100081F0100081F010008B0
:1000B0001F0100081F0100081F0100081F010008A0
:1000C0001F0100081F0100081F0100081F01000890
:1000D0001F0100081F0100081F0100081F01000880
:1000E0001F0100081F0100081F010008DFF810D0E1
:1000F00000F046FA00480047A9280008AFF3008046
:10010000504500200648804706480047FEE7FEE7C6
:10011000FEE7FEE7FEE7FEE7FEE7FEE7FEE7FEE7B7
:10012000F5240008ED000008202A04DB203A21FA1B
:1001300002F00021704721FA02F3D040C2F1200200
:100140009140084319467047D2B201E000F8012BF4
:10015000491EFBD270470022F6E710B513460A4647
:1001600004461946FFF7F0FF204610BD80EA010261
:1001700010B502F00043400022D04A001FD0010E0B
:1001800001EB1261C0F35600C2F3560240F40000C6
:1001900042F40002A0FB022000047F39140400D0C6
:1001A000401C50EA124001D44000491EC2B20C0665
:1001B00004EBD010401C4008802A02D003E000204D
:1001C00010BD20F00100002900DA0020184310BD06
:1001D0002DE9FE4F804681EA0300C00F0C460090D7
:1001E00021F0004123F00045B8EB0200A94105D2FF
:1001F0004046214690461C460B46024623F00040EE
:10020000104347D0270DC7F30A00C3F30A510290E9
:10021000401A019040286BDAC3F3130040F4801BAE
:100220000098924620B10023D2EB030A63EB0B0B3C
:1002300001985946C0F14002504600F0EBF80646DE
:100240000D4650465946019A00F0F3F810EB0800AD
:100250006141002487EA115284EAE7731A4340D0CF
:10026000009A62B3019A012A4FEA075215DC001B7B
:1002700061EB02014FF0004202EA0752CDE9004271
:10028000001C41F5801132462B4600F02AF903B0DC
:10029000BDE8F08F40462146F9E7001B61EB020103
:1002A000001C41F5801300185B412018A2F50017CF
:1002B00047EB030140EAD570B6196D4111E06D08B6
:1002C0004FEA360645EAC0754FEA0752001B61EB5C
:1002D0000201001C41F5801149084FEA3000001965
:1002E000514132462B4603B0BDE8F04F00F0EAB86A
:1002F0000098012240000023D0EB020263EBE07380
:10030000009821464FEAE074B8EB000061EB04016D
:10031000E9E783F000435BE781F0004158E70EB561
:10032000C10F80EAE0700844CA07002140F233435D
:100330008DE80E000A460B4600F0D3F803B000BD6E
:1003400000F0004220F00040C10DC0F3160040F460
:1003500000007F2901DA00207047962903DCC1F1F3
:100360009601C84001E096398840002AF4D0404206
:10037000704770B5C1F30A5201F000450024C1F383
:10038000130140F2FF3341F480119A4201DA002058
:1003900070BD40F233439A42A2F2334203DC524230
:1003A000FFF7C2FE00E090402C43F1D0404270BD08
:1003B00001F0004330B421F0004150EA010206D0C0
:1003C0000A0DA2F56072C1F31301002A02DC30BCF1
:1003D00000207047440F44EAC104C100E01830BC5B
:1003E00000EBC25000F037B830B50B460146002094
:1003F0002022012409E021FA02F59D4205D303FAE7
:1004000002F5491B04FA02F52844151EA2F1010267
:10041000F1DC30BD202A04DB203A00FA02F1002092
:1004200070479140C2F1200320FA03F31943904032
:100430007047202A06DBCB17203A41FA02F043EA44
:10044000E07306E041FA02F3D040C2F1200291408D
:100450000843194670470029A8BF7047401C49004F
:1004600008BF20F00100704710B4B0FA80FC00FA19
:100470000CF050EA010404BF10BC704749B1CCF144
:10048000200421FA04F411FA0CF118BF01212143D0
:100490000843A3EB0C01CB1D4FEA00614FEA10208B
:1004A00042BF002010BC704700EBC350104400292D
:1004B000A4BF10BC7047401C490008BF20F00100D9
:1004C00010BC704710B5141E73F1000408DA401C0C
:1004D00041F1000192185B411A4301D120F0010063
:1004E00010BD2DE9F04D92469B4611B1B1FA81F253
:1004F00002E0B0FA80F220329046FFF78BFF04460C
:100500000F4640EA0A0041EA0B0153465A460843A7
:1005100013D0114653EA010019D0C8F140025046E9
:10052000FFF702FE05460E46504659464246FFF783
:1005300071FF084305D0012004E020463946BDE89C
:10054000F08D0020054346EAE0762C4337430A98B5
:100550006305E40AA0EB08000022FD0A44EA4754C0
:100560000A3002D500200146E9E70105101969416A
:10057000DDE9084500196941BDE8F04DA2E700003A
:10058000064C074D06E0E06840F0010394E80700E0
:1005900098471034AC42F6D3FFF7ACFD8058000802
:1005A000A0580008FEE7704700F002B8FEE7000020
:1005B00070B5044600F004F90546601C02D00448FA
:1005C0000078044400F0FCF8401BA042FAD370BD50
:1005D000000000202DE9F84FDFF8B891002409F160
:1005E000040A0AF1040B23460F270BF1040EC9E09D
:1005F0000125A5402A40AA427DD1674ED1F804C00A
:10060000ACEB0608B44532D014DCBCF1030F3AD091
:1006100009DCBCF1000F2AD0BCF1010F1CD0BCF1E9
:10062000020F31D11DE0BCF1110F17D0BCF1120F38
:100630002AD119E0B8F5881F19D006DCB8F5803F3B
:1006400015D0B8F5801F1FD111E0B8F5001F0ED0EE
:10065000B8F5041F18D10AE0CB6815E0CB681B1D64
:1006600012E0CB6808330FE0CB680C330CE08B68EA
:100670002BB1012B4FF0080303D0456104E00423A4
:1006800002E0056100E00023FF2A01D8064601E0F0
:1006900000F104064FEA840501D9A5F12005D6F83A
:1006A000008007FA05FC28EA0C0803FA05F548EA79
:1006B0000508C6F800804D68ED0062D5374DAE697B
:1006C00046F00106AE61AD6924F0030605F00105B0
:1006D0000095334D06EB050CDCF80850A607360FE5
:1006E00007FA06F825EA0805DFF8B880404503D187
:1006F0004FF0000817E044E0DFF8AC80404502D13D
:100700004FF001080FE0DFF8A480404502D14FF020
:10071000020808E0DFF89880404502D14FF0030856
:1007200001E04FF0040808FA06F848EA0508CCF89A
:1007300008804D68D9F80060ED034D4601D5164399
:1007400000E096432E604D68DAF80060AD03554630
:1007500001D5164300E096432E604D68DBF800603B
:10076000ED025D4601D5164300E096432E604D68CC
:10077000DEF80060AD02754601D5164300E09643F1
:100780002E60641C0D682A46E5407FF431AFBDE859
:10079000F88F00000004014000001110001002401A
:1007A0000000014000080140000C01400010014021
:1007B000001401400AB1016170470904FBE7000021
:1007C00001488068704700000000002070B50400F8
:1007D0001BD094F83D00002520B984F83C502046F9
:1007E00000F0AEF8242084F83D002068016821F074
:1007F0000101016000F0FCF94D4A6168914201D8A5
:100800004C4900E04C49884201D2012070BD4B495F
:100810002368B0FBF1F15E6826F03F060E435E6090
:100820006368934206D94FF4967359434FF47A7331
:10083000B1FBF3F12368491C1E6A26F03F063143E1
:1008400019626168914210D84900401EB0FBF1F274
:10085000521CC2F30B02042A01D2042022E0B0FB96
:10086000F1F0401CC0F30B001CE0A368F3B301EBF4
:10087000C10202EB0116421EB2FBF6F2521C42F418
:100880008042120549D093B301EBC10202EB011182
:10089000401EB0FBF1F0401CC0F30B0040F4804060
:1008A00040F400402168CA694CF6FF739A43104334
:1008B000C861D4E90701084321680A6822F0C00230
:1008C00010430860D4E9030101432068826848F2BC
:1008D000FF339A4311438160D4E90501084321683D
:1008E000CA6822F0FF021043C86001E00EE016E083
:1008F0002068016841F0010101602564202084F82E
:100900003D00256384F83E50002070BD01EB410698
:10091000421EB2FBF6F2521CB3E70120C2E701EB24
:100920004101401EB0FBF1F0401CC0F30B00B7E7E3
:10093000A086010080841E0000093D0040420F0097
:1009400010B586B0002100910191029103910068D9
:100950001349884222D1134CA06940F00800A061DD
:10096000A069694600F0080004904FF440700090C0
:1009700012200190032003900B48FFF72BFE0B4839
:10098000416841F0E06141F002014160E06940F4FA
:100990000010E061E06900F40010049006B010BDA2
:1009A0000054004000100240000C014000000140D3
:1009B000024881680278114481607047000000207D
:1009C000074810B5016841F010010160032000F0F4
:1009D00067F8002000F006F800F024F8002010BDB1
:1009E0000020024070B50D4D04464FF47A7128780E
:1009F000B1FBF0F00A490968B1FBF0F000F054FBDC
:100A000048B9102C07D200222146501E00F028F8C9
:100A100000206C6070BD012070BD0000000000204F
:100A20000C0000200C4808B5816941F0010181618A
:100A3000816901F001010091C16941F08051C161FA
:100A4000C06900F0805000900448416821F0E061E6
:100A500041F00071416008BD0010024000000140FB
:100A6000F0B40E4B1B680C46C3F30223C3F1070519
:100A7000042D00D90425191D072901D2002300E007
:100A8000DB1E012606FA05F1491E214099409E40D1
:100A9000761E16403143F0BC01F0FEBD0CED00E0C7
:100AA000064900F0070208684FF6FF03184040EAC5
:100AB0000220034A10430860704700000CED00E07C
:100AC0000000FA052DE9F0470F46050061D0434EBE
:100AD000306800F00700B84209D2306820F0070003
:100AE00038433060306800F00700B84251D12868C0
:100AF0003B4C810712D5400703D5606840F4E060A5
:100B000060602878000703D5606840F4605060603A
:100B10006068A96820F0F000084360602878C0078A
:100B200028D06868012810D02168022810D08907D1
:100B300000292EDA616821F0030101436160FFF7AB
:100B40003FFE804641F288390DE021688903EFE7D6
:100B50008901EDE7FFF734FEA0EB0801494502D912
:100B60000320BDE8F0876068696800F00C00B0EB16
:100B7000810FEFD1306800F00700B8420BD9306820
:100B800020F0070038433060306800F00700B842BA
:100B900001D00120E5E72878400705D56068E968BD
:100BA00020F4E060084360602878000706D560689C
:100BB000296920F4605040EAC100606000F038F814
:100BC0006168084AC1F30311515CC84006490860D6
:100BD00006480068FFF706FF0020C2E70020024039
:100BE00000100240342900080C00002004000020FE
:100BF0000448054900684968044AC1F30221515C70
:100C0000C84070470C000020001002404429000832
:100C10000448054900684968044AC1F3C221515C8F
:100C2000C84070470C000020001002404429000812
:100C300012A185B00FC98DE80F0014A0144A0068F6
:100C400004905168134801F00C03042B10D0082BBA
:100C50000ED1C1F38343C9031DF803000AD55168BF
:100C600004AAC1F34041515C0A4A5043B0FBF1F081
:100C700005B0704708494843FAE70000020304053D
:100C8000060708090A0B0C0D0E0F101001020000D8
:100C90000010024000127A0000093D002DE9F84FD3
:100CA000040070D02078C04DC00749D06868C0F3F8
:100CB0008100012807D06868C0F38100022809D1AB
:100CC0006868C00306D52868800339D560680028A5
:100CD000E7D035E06068B0F5803F0BD010B1B0F5DB
:100CE000A02F11D0286820F480302860286820F4D4
:100CF000802002E0286840F480302860606890B16D
:100D0000FFF75EFD06460AE0286840F48020286070
:100D1000F0E700BFFFF754FD801B642873D82868F4
:100D20008003F7D50CE0FFF74BFD064605E000BF5A
:100D3000FFF746FD801B6428F0D828688003F7D4AD
:100D400020789A4E80074FF001094FF0000839D5FE
:100D5000686810F00C0F07D06868C0F381000228A3
:100D600009D16868C00306D42868800714D52069B3
:100D7000012808D110E02069B0B1C6F80090FFF753
:100D80001FFD074605E00AE1FFF71AFDC01B022818
:100D9000C4D828688007F7D52868616920F0F80072
:100DA00040EAC10028600DE0C6F80080FFF708FDAA
:100DB000074604E0FFF704FDC01B022823D828687B
:100DC0008007F7D4207800072CD57948A169D9B1DC
:100DD000C0F80090FFF7F4FC074604E0FFF7F0FCD2
:100DE000C01B02280FD8686A8007F7D571484FF4F6
:100DF000FA510068B0FBF1F0009000BF0098411E6E
:100E00000091FAD20EE080E0C0F80080FFF7D8FC35
:100E1000074604E0FFF7D4FCC01B022875D8686AB7
:100E20008007F7D42078400760D5E8690027C00024
:100E300008D4E86940F08050E861E869012700F0D3
:100E4000805000905C480168C90513D4016883464E
:100E500041F480710160FFF7B3FC824606E000BFF9
:100E6000FFF7AEFCA0EB0A0064284ED8DBF80000C8
:100E7000C005F5D5E06801280AD008B1052813D0CF
:100E8000286A20F001002862286A20F0040002E0AD
:100E9000286A40F001002862E06841F2883B98B17E
:100EA000FFF78EFC82460BE0286A40F004002862BF
:100EB000EEE700BFFFF784FCA0EB0A0159455AD8C2
:100EC000286A8007F6D50CE0FFF77AFC824605E039
:100ED000FFF776FCA0EB0A0159454CD8286A800739
:100EE000F6D41FB1E86920F08050E861E06988B36A
:100EF0006968C1F38101022944D00228C6F86080E4
:100F000004D0FFF75DFC044638E034E0FFF758FCFE
:100F1000074604E0FFF754FCC01B02282BD82868C2
:100F20008001F7D4206AB0F5803F05D16868A168D8
:100F300020F4003008436860D4E908010843696878
:100F400021F4741108436860C6F86090FFF738FC1C
:100F5000044606E025E000BFFFF732FC001B022834
:100F600009D828688001F7D51BE000BFFFF728FCEF
:100F7000001B022802D90320BDE8F88F28688001F1
:100F8000F4D40EE00128F7D06868226A00F48031BA
:100F9000914204D1616A00F47010884201D00120AE
:100FA000EAE70020E8E700000010024000004242AB
:100FB000800442420C0000200070004070B5040024
:100FC00005D00025A56294F8510010B106E001207B
:100FD00070BD84F85050204600F02EF8022084F8AE
:100FE00051002068016821F040010160D4E901014D
:100FF0000843D4E903121143084361690843218B74
:1010000001F400710843E1690843216A0843A16AB9
:10101000084321680860A069042101EA10402168A2
:1010200048602068C16921F40061C16165650120E3
:1010300084F85100002070BD30B585B000240094C4
:1010400001940294039400681449884223D11448FF
:10105000816941F480518161816901F48051049179
:10106000816941F00401816180690E4D00F0040046
:101070000490A02000900220019003200390694674
:101080002846FFF7A7FA4020CDE900046946284624
:101090000294FFF79FFA05B030BD00000030014018
:1010A000001002400008014010B5401EB0F1807FE2
:1010B00001D3012010BD4FF0E02460610F216017C3
:1010C00001F0EAFA0020A06107202061002010BD95
:1010D00070B5040004D094F83900002510B106E082
:1010E000012070BD84F83850204600F023F82420F9
:1010F00084F839002068C16821F40051C16020469D
:1011000001F02AFA2068016921F490410161206808
:10111000416921F02A0141612068C16841F4005110
:10112000C160E563202084F8390084F83A0000208B
:1011300070BD000030B585B0002400940194029485
:10114000039400681449884223D11448C16941F4CA
:101150000031C161C16901F400310491816941F03C
:101160000401816180690E4D00F0040004900420A8
:101170000090022001900320039069462846FFF763
:1011800029FA0820CDE90004694628460294FFF7B1
:1011900021FA05B030BD00000044004000100240BC
:1011A000000801402DE9F843044690F839001F4635
:1011B00016460D46202850D1A5B19EB194F83800AE
:1011C00001284AD0012084F838004FF00008C4F804
:1011D0003C80212084F83900FFF7F2FAA68481468A
:1011E000E68426E00120BDE8F883E08C401EE08420
:1011F000A0684B46B0F5805F4FF000024FF08001D1
:101200002046009703D001F003FAE8B90DE001F0A1
:10121000FFF9C8B928882168C0F308004860206930
:1012200008B16D1C05E0AD1C03E0216815F8010B49
:101230004860E08C0028D8D14B460022402120464F
:10124000009701F0E5F908B10320CCE7202084F8ED
:10125000390084F838800020C5E70220C3E7FEE7A4
:101260002DE9F04786B000252C48009501950295A0
:101270000395816941F020018161816901F02001BC
:101280000491816941F004018161816901F00401E7
:101290000491816941F010018161816901F01001BF
:1012A0000491816941F0080181618069DFF87080F3
:1012B00000F008004FF4A07404900022214640463C
:1012C000FFF778FADFF85C904FF440770022394658
:1012D0004846FFF76FFADFF850A000224021504641
:1012E000FFF768FA009401240226CDE90246694618
:1012F00040460194FFF76EF901AA009782E870005A
:1013000069464846FFF766F940208DE87100694656
:101310005046FFF75FF906B0BDE8F08700100240C5
:101320000010014000080140000C01400D4810B5BC
:101330000B4901600C49416000214FF480428160FB
:10134000C0E9031241618161C1610162FFF73EFAA8
:10135000002803D0BDE81040FFF728B910BD0000F9
:10136000005400404C000020A0860100104810B539
:101370000E4901604FF482714160002102228160B8
:10138000C0E9031201224261520282611022C0E9C7
:101390000721416281620A21C162FFF70FFE002826
:1013A00003D0BDE81040FFF701B910BD0030014087
:1013B000A00000200C4810B50A4901604FF4E1314B
:1013C0004160002181600C22C160C0E9041281618A
:1013D000C161FFF77DFE002803D0BDE81040FFF794
:1013E000E5B810BD00440040F8000020FEE770475B
:1013F0002DE9F0410746002404F1B000C0B200F02E
:1014000099F8002000F096F8102000F093F80025DD
:10141000C4F1070606EBC500385C00F06FF86D1CE0
:10142000ADB2802DF6D3641CA4B2082CE4D3BDE881
:10143000F081000070B50122114D5402214628466A
:10144000FFF7B8F96420FFF7AFF8002221462846DD
:10145000FFF7B0F96420FFF7A7F8012221462846DC
:10146000FFF7A8F96420FFF79FF800F00BF8C820F9
:10147000FFF79AF8BDE87040AF2000F05BB80000BD
:101480000008014010B5AE2000F054F8002000F034
:1014900051F8102000F04EF8202000F04BF800200A
:1014A00000F048F8FF2000F045F8A62000F042F8D0
:1014B000A82000F03FF83F2000F03CF8D32000F0D7
:1014C00039F8002000F036F8D52000F033F88020FD
:1014D00000F030F8D92000F02DF8222000F02AF892
:1014E000DA2000F027F8122000F024F8DB2000F0CA
:1014F00021F8BDE81040402000F01CB870B505464A
:10150000012211020948FFF755F9094C0022402138
:101510002046FFF74FF9284600F0A0FF2046BDE81F
:10152000704001224021FFF745B90000000801404A
:10153000000C014070B5054600224FF48071094847
:10154000FFF738F9084C002240212046FFF732F916
:10155000284600F083FF2046BDE87040012240216C
:10156000FFF728B900080140000C01402DE9FF41B8
:1015700080A001F081F800F0E1FF4FF0FF3518B1D5
:10158000284604B0BDE8F08181A001F075F8FFF7AE
:1015900051FF4FF4FA742046FFF706F84FF48060CD
:1015A00001F092F907007CD07DA001F065F80026DB
:1015B0004FF48773802240213846009600F092FE57
:1015C0007CA001F059F8384600F0AAFE2046FEF74C
:1015D000EBFF002000F058F979A001F04DF801254B
:1015E0004FF6FF742B4622460A211420009500F086
:1015F0005DFC022322460A211E20009500F056FCC5
:10160000032322460A212820009500F04FFC0A22DD
:101610008DE8700014231146104600F013FB1422CD
:101620008DE870001E231146104600F00BFB1E22B1
:10163000CDE90045282311461046029500F002FB33
:101640002822CDE90045322311461046029500F0CC
:10165000F9FACDE9005623460F221E213C2000F066
:10166000E3F900952346142228216420019500F017
:10167000DBF98DE8700028233C221E21322000F087
:10168000B7FCCDE9006532236E221E215A20029557
:1016900000F0AEFC3846FFF7ABFE4FF4FA65284683
:1016A00000E062E0FEF780FF002000F0EDF849A0C6
:1016B00000F0E2FF00944C4B4CA200210A20019460
:1016C00000F0D2FD00944C4B4CA211210A20019451
:1016D00000F0CAFD484900910420CDE901044A4ABE
:1016E0004A4B1E210A20039400F038FB4849009120
:1016F0000520CDE901040022464B2B210A2003944A
:1017000000F02CFB3846FFF773FE2846FEF74CFF2F
:10171000002000F0B9F840A000F0AEFF0094434B69
:1017200043A200210A20019400F0D2FC0094424B15
:1017300042A214210020019400F0CAFC3846FFF7B1
:1017400057FE2846FEF730FF002000F09DF83EA02F
:1017500000F092FF4148FFF74BFE2846FEF724FFBA
:10176000002000F091F800200BE73DA000F084FF7E
:1017700006E70000312E3531696E6368204F4C4515
:101780004420746573742064656D6F0A0000000066
:101790004F4C454420496E69742E2E2E0D0A0000D0
:1017A0005061696E745F4E6577496D6167650D0ABA
:1017B0000000000044726177696E670D0A00000046
:1017C00044726177696E673A7061676520310D0A0E
:1017D0000000000044726177696E673A7061676566
:1017E00020320D0A0000000020000020776176659D
:1017F00073686172650000001000002068656C6C01
:101800006F20776F726C64000B0BEE073CDD5E405F
:10181000180000200C242E4144726177696E673AEB
:101820007061676520330D0A000000002800002069
:10183000C4E3BAC34162630034000020CEA2D1A940
:10184000B5E7D7D30000000044726177696E673A4C
:101850007061676520340D0A000000004C29000803
:101860004661696C656420746F206170706C7920CA
:10187000666F7220626C61636B206D656D6F72794B
:101880002E2E2E0D0A00000070B52849CA8A022AA1
:101890000BD0042A09D0102A1BD0412A18D10022CB
:1018A00000F00F04C0F303253CE00022C4B20CE0BA
:1018B000002305E002FB00300D685B1C9BB22C543A
:1018C000488A9842F6D8521C92B2888A9042EFD841
:1018D00070BD002211E000230AE000BF02FB0434C7
:1018E0000E6800F00F0040EA00155B1C35559BB2F6
:1018F0004C8A9C42F2D8521C92B28B8A9342EAD80C
:1019000070BD002009E053430E6803EB4003F5541B
:101910005B1C0E68401C80B2F4544B8A8342F2D8A0
:10192000521C92B2888A9042EBD870BD38010020D8
:101930002DE9F05F81462B481E46DDF82CB08388E8
:1019400088464B4502D3C188414504D2BDE8F05FCB
:1019500025A000F091BEB088410700D0012101EB25
:10196000D000203AF1885043484331684FF0800A54
:101970000F18002530E0002425E000BFABF57F41C3
:10198000FF39397804F007022AFA02F001EA00016F
:1019900001D009B908E081B108EB050081B209EB7B
:1019A000040080B20A9A06E008EB050081B209EB58
:1019B000040080B25A4600F0B9FCE043400700D171
:1019C0007F1C641CA4B2B088A042D7D830794007ED
:1019D00000D07F1C6D1CADB2F088A842CBD8BDE80A
:1019E000F09F00003801002044656275673A20507E
:1019F00061696E745F447261774368617220496EF9
:101A000070757420657863656564732074686520FB
:101A10006E6F726D616C20646973706C6179207295
:101A2000616E67650D0A00002DE9FF4F804683480F
:101A300085B00F4684881399444502D3C088B842C4
:101A400005D809B07E48BDE8F04F00F015BE032070
:101A50000024A0EB420015B20FFA80FA01297AD0D7
:101A6000E9E0264661E000BF4FF0010908EB040001
:101A700007EB060B02901FFA8BF1CDF8009080B2B5
:101A80004B46089A00F012FAA8EB040004901FFAE3
:101A90008BF1CDF8009080B20123089A00F006FA8D
:101AA0003819CDE9009081B2A8EB060B1FFA8BF034
:101AB0000123089A00F0FAF9381B039081B2CDF89F
:101AC00000901FFA8BF00123089A00F0EFF90498B8
:101AD000A7EB060B1FFA8BF1CDF8009080B2012323
:101AE000089A00F0E3F902981FFA8BF1CDF8009004
:101AF00080B20123089A00F0D9F9039808EB060B8D
:101B000081B2CDF800901FFA8BF00123089A00F003
:101B1000CDF90198CDF8009081B21FFA8BF0012326
:101B2000089A00F0C3F9761C36B2AE429CDDBAF1D9
:101B3000000F06DA0AEB8400801D0FFA80FA08E035
:101B400009E0611B0AEB81000A306D1E0FFA80FA72
:101B50002DB2641C24B2AC4283DD09B0BDE8F08F25
:101B600008EB0400012607EB050902901FFA89F132
:101B7000009680B2129B089A00F098F9A8EB040036
:101B800003901FFA89F1009680B2129B089A00F028
:101B90008DF93819CDE9006081B2A8EB05091FFA6B
:101BA00089F0129B089A00F081F9A7EB040B1FFA49
:101BB0008BF11FFA89F00096129B089A00F076F9D3
:101BC0000398A7EB05091FFA89F1009680B2129BD2
:101BD000089A00F06BF902981FFA89F1009680B21A
:101BE000129B089A00F062F908EB05091FFA8BF1C5
:101BF0001FFA89F00096129B089A00F057F9019895
:101C0000009681B21FFA89F0129B089A00F04EF9F3
:101C1000BAF1000F05DA0AEB8400801D0FFA80FA92
:101C200007E0611B0AEB81000A306D1E0FFA80FA93
:101C30002DB2641C24B2AC4292DD8EE73801002044
:101C40003C5800082DE9FE4F1D46334B16469A8836
:101C5000824206D3DB888B4203D3B24201D3AB422C
:101C600004D2BDE8FE4F2DA000F006BD83468A4693
:101C7000321A00D5821B91466A1A002A00DD4A1BDF
:101C800090464FF0FF32B34501D2012000E01046EC
:101C90000290AA4500D2012209EB08040027019214
:101CA0007F1C0E98FFB2012805D10320B7FBF0F18D
:101CB00000FB1170E8B10120DDE90C2300905146D2
:101CC000584600F0F3F800BFB8EB440F06DCB3450C
:101CD00020D00298444458441FFA80FBB9EB440FCB
:101CE000DEDBAA4516D001984C4450441FFA80FA16
:101CF000D6E70C980D9B00284FF00100009001D012
:101D0000002201E04FF6FF725146584600F0CEF82F
:101D10000027D9E7BDE8FE8F3801002044656275D1
:101D2000673A205061696E745F447261774C696EE6
:101D30006520496E707574206578636565647320ED
:101D4000746865206E6F726D616C20646973706C6D
:101D500061792072616E67650D0A00002DE9FF5FF1
:101D6000ADF5067D00244FF4807916469846254649
:101D7000494642A8959FFEF7EEF9494602A8FEF7AC
:101D8000EAF942A8839030464146FEF7F2FA354917
:101D9000869A83468B88934203D3CA8887998A425E
:101DA00006D231A000F068FC0DF50A7DBDE8F09F79
:101DB0004FF00A090DF1080A5FB3FEF7B0FA324698
:101DC0004346FEF7A9FAFEF7F3FAFEB2DFF8D88031
:101DD00004E04146FEF7CAF9761EF6B2002EF8D1AD
:101DE000FEF7AEFAF9B24A4653460BE090FBF2F624
:101DF00002FB1606303690FBF2F01E55641C491E9D
:101E000024B2C9B20029F1D12E200AF80400641CC2
:101E100024B258464A4651460AE000BF90FBF2F30E
:101E200002FB130390FBF2F030330B55641C24B219
:101E30000028F3D142A8002C08DD0A1912F8012C61
:101E400042556D1C641E2DB224B2F4E7DDE99610F4
:101E5000CDE90001DDE98601949B839A00F004FA44
:101E6000A2E700003801002044656275673A2050FF
:101E700061696E745F4469734E756D20496E70754B
:101E800074206578636565647320746865206E6F7F
:101E9000726D616C20646973706C61792072616E1F
:101EA00067650D0A00000000000020412DE9F05F89
:101EB0002B4D93468146AA880A981C4688464A4577
:101EC00002D3EA8842450ED226A000F0D5FBAA88AC
:101ED000494634A000F0D0FBEA884146BDE8F05FF7
:101EE00039A000F0C9BB012801D0002634E000254C
:101EF000681E00EB440718E009EB05000026A0EB84
:101F0000040A0EE0BAF1000F0DD408EB0600001B26
:101F100009D481B21FFA8AF05A4600F007FA761CFB
:101F200036B2B742EEDC6D1C2DB2AF42E4DCBDE848
:101F3000F09F002509EB06077F1E09E008EB05006E
:101F4000401E81B2B8B25A4600F0F0F96D1C2DB2B5
:101F5000A542F3DB761C36B2A642EADBE7E70000D7
:101F60003801002044656275673A205061696E74DB
:101F70005F44726177506F696E7420496E7075743A
:101F8000206578636565647320746865206E6F7280
:101F90006D616C20646973706C61792072616E6729
:101FA000650D0A0058706F696E74203D202564200D
:101FB0002C205061696E742E5769647468203D202E
:101FC000256420200D0A200059706F696E74203D31
:101FD000202564202C205061696E742E4865696745
:101FE0006874203D20256420200D0A200000000098
:101FF0002DE9FE4F8246294891460C46DDE90D52F7
:1020000081880C9E1F46514506D3C088A04203D349
:10201000494501D3B84204D2BDE8FE4F20A000F0EC
:102020002BBB0020804662B90FE0CDE90065234656
:102030004A4619465046CDF80880FFF703FE641C57
:10204000A4B2BC42F1D3BDE8FE8FCDE900652346C2
:102050004A4619465046CDF80880FFF7F3FDCDE912
:10206000006552463B4621461046CDF80880FFF7F2
:10207000E9FDCDE900654A46234639461046CDF8CC
:102080000880FFF7DFFDCDE900653B465246194663
:102090004846CDF80880FFF7D5FDD4E73801002089
:1020A00044656275673A20496E707574206578637F
:1020B0006565647320746865206E6F726D616C2055
:1020C000646973706C61792072616E67650D0A00D6
:1020D0002DE9F05F1D46904606468A46DDF82CB095
:1020E000B9E07F294FF0000056D8AA884EE053236C
:1020F0002C68434314F813308B4246D15321484394
:10210000022101EB400004EB0009002739E0002424
:102110002EE000BFABF57F40FF384FEAE47004EBE0
:10212000507020F00700A4EB000299F800104FF067
:10213000800020FA02F001EA000101D009B907E0AD
:1021400071B10AEB070081B2301980B20A9A05E03A
:102150000AEB070081B2301980B25A4600F0E6F867
:10216000404804EA0001072901D109F10109641C72
:102170002889A042CEDC287A400701D009F1010964
:102180007F1C6889B842C2DC02E0401C8242AEDC9F
:1021900008F10108E8885DE00127AA8855E053238B
:1021A0002C68434314F813C08C454DD107EB43030F
:1021B000E45C98F801309C4246D153214843022107
:1021C0002A6801EB400002EB0009002738E00024F8
:1021D0002DE000BFABF57F40FF384FEAE47004EB21
:1021E000507020F00700A4EB000299F800104FF0A7
:1021F000800020FA02F001EA000101D009B907E0ED
:1022000071B10AEB070081B2301980B20A9A05E079
:102210000AEB070081B2301980B25A4600F086F806
:1022200010482040072801D109F10109641C2889C0
:10223000A042CFDC287A400701D009F101097F1CB8
:102240006889B842C3DC02E0401C8242A7DC2889CE
:1022500008F10208064498F8001000297FF441AF05
:10226000BDE8F09F070000802DE9FC5F80461B4819
:1022700089460D4681884446DDF834B01E4617462F
:10228000A14203D3C1888246A94222D2BDE8FC5FA5
:10229000134800F0F1B9B088BAF804300119994236
:1022A00003D9F188444629448DB2F188BAF8060072
:1022B0002944814201D944464D460C983346CDE924
:1022C00000B029462046FFF733FBB0887F1C20442E
:1022D00084B23A78002ADED1BDE8FC9F38010020A4
:1022E000F857000870B50D4C049E00252060218130
:1022F0006281A6810220E0824E074FEAD10000D021
:10230000401C6082A282E381258223B1B42B02D0DB
:10231000A280E18070BDA180E28070BD3801002004
:10232000014908607047000038010020F0B43F4CBC
:10233000A388834234D3E3888B4231D32346E78991
:102340001E895D89CFB15A2F1AD0B42F1CD0B7F592
:10235000877F3DD10B46281A401E80B2218AD9B111
:10236000012916D0022904D0032931D1F11A491EBE
:102370008BB2281A401E80B20EE003460846EDE7F5
:10238000711A491E8BB2E9E7301A401E83B2681AEF
:10239000E2E7F11A491E8BB29E4201D3854203D275
:1023A000F0BC23A000F068B92049E68A4D8A09688C
:1023B000022E0FD0042E1ED0102E28D0412E07D171
:1023C000454305EB4300130A0B542168401C0A5493
:1023D000F0BC7047454305EBD3058020002A4C5DD7
:1023E00003F0070220FA02F002D020434855EFE73D
:1023F00084434C55ECE7454305EB930492079B0758
:10240000085D5B0FC025DD40A843120E0AE045437E
:1024100005EB53041207DB07085D5B0FF025DD4079
:10242000A843120EDA4002430A55D1E738010020D2
:1024300044656275673A20457863656564696E67CF
:1024400020646973706C617920626F756E6461726B
:102450006965730D0A000000704700000B490968A8
:102460000A6842F040020A6009494A6842F4805210
:102470004A608A689207FCD5087388680006FCD415
:102480008868C007FCD0087B70470000A0000020CF
:10249000003001407047FEF78BBA30B58FB028216D
:1024A0006846FDF758FE14210AA8FDF754FE0121E5
:1024B0000804CDE900100024029402250491CDE91E
:1024C00007504FF4E01009906846FEF7E7FB00B1B3
:1024D000FEE70F20CDE90A054FF48060CDE90C40FE
:1024E00002210AA80E94FEF7EDFA002800D0FEE7BC
:1024F0000FB030BD0D48016841F001010160416835
:102500000B4A1140416001680A4A114001600168AC
:1025100021F480210160416821F4FE0141604FF403
:102520001F0181600449C003086070470010024029
:102530000000FFF8FFFFF6FE08ED00E010B502A076
:1025400000F09AF8002010BD5553455F5350495F85
:1025500034570D0A000000002DE9F04104460068E0
:102560000169E26821F44051114301612169A068C9
:102570000843616908432168CA6841F20C639A43C1
:102580000243CA6020684169A26921F44071114385
:1025900041611E49206864253226884202D1FEF737
:1025A00037FB01E0FEF724FB00EBC00101EB00115B
:1025B00060686FF018078000B1FBF0F2B2FBF5F233
:1025C000B1FBF0F37A4303EB8202B1FBF0F306EBCD
:1025D0000212B2FBF5F2B3FBF5F302F0F00202EBEC
:1025E0000312B1FBF0F3B1FBF0F0B0FBF5F0784370
:1025F00003EB800006EB0010B0FBF5F0216800F063
:102600000F0010448860BDE8F081000000380140F0
:102610002DE9F041984617460E460446069D1DE0FA
:10262000681C1BD02DB1FEF7CBF8A0EB0800A84228
:1026300014D92068C16821F4D071C1602068416953
:1026400021F001014161202084F8390084F83A002A
:10265000002084F838000320BDE8F081206800687D
:1026600036EA000004D00020B842D9D00020F3E7B9
:102670000120F9E7FEE700000FB4054B10B503A9F0
:10268000044A029800F028F810BC5DF814FB000022
:1026900091280008400000200907090E002804DBEB
:1026A00000F1E02080F80014704700F00F0000F106
:1026B000E02080F8141D704702E008C8121F08C10E
:1026C000002AFAD170477047002001E001C1121FB3
:1026D000002AFBD1704700002DE9FF4F8BB09A46CE
:1026E0000F460546002606E025280BD052460D99D8
:1026F00090476D1C761C28780028F5D10FB0304625
:10270000BDE8F08F0024A0460122604900E00443A8
:1027100015F8013F203B02FA03F00842F7D1287870
:102720002E2817D115F8010F44F004042A280ED0E2
:102730006FF02F022878A0F1300109290AD808EBA0
:10274000880102EB410100EB01086D1CF2E757F82C
:10275000048B6D1C287869283ED006DC0028CDD07B
:1027600063280BD0642804D136E0732810D0752874
:102770004BD052460D999047761C85E017F8040B14
:102780008DF8000000208DF80100E946012003E0EB
:1027900057F8049B4FF0FF3061074FF0000401D45D
:1027A0000AE0641C44450DDA8442FADB19F804108F
:1027B0000029F6D106E0641C8442FCDB19F8041001
:1027C0000029F8D1264404E019F8010B52460D996E
:1027D0009047641EF8D257E001CF4FF00A0B002853
:1027E00002DA40422D2102E0210504D52B218DF88B
:1027F0002410012103E0E10705D02021F7E70DF1C6
:10280000200908910CE00021F9E701CF4FF00A0BF5
:10281000F9E75946FDF7E8FD01F1300209F8012D0D
:102820000028F6D1ADEB090000F1200B600701D4C0
:102830004FF00108D84502DDA8EB0B0000E00020B6
:102840008046002406E009A85246005D0D99904795
:10285000641C761C08988442F5DB04E03020524664
:102860000D999047761CB8F10001A8F10108F5DC3C
:1028700005E019F8010B52460D999047761CBBF103
:102880000001ABF1010BF4DC6D1C34E709280100F9
:1028900013B54FF6FF73012269460248FEF782FC2A
:1028A00000981CBDF8000020FEF78AF8FFF7F5FD40
:1028B000FEF7D6FCFEF75AFDFEF77CFDFEF736FD6F
:1028C000FEF754FEFEE70000F0B50B30154D20F08A
:1028D00007010024144A0FE003688B420BD38B429C
:1028E00005D95E1A43184768C3E9006700E04368EA
:1028F000136002C004E0021D10680028ECD12046DD
:10290000002802D1286808B10020F0BD064A074817
:102910001060074A121A22F00702C0E900240120C1
:102920002860D7E748000020440000205401002020
:1029300050410020000000000000000001020304DC
:10294000060708090000000001020304000000005F
:102950000000000000000000000000000000000077
:102960000000000000000000000000000000000067
:102970007800000000000000FE00000000000001E0
:10298000C7000000000000038380700000001F07E4
:102990000183FE0000003FC601CF8F00000030E63B
:1029A00000FC03000000707E00F003000000603CAB
:1029B000006003000000601C000003000000600CC9
:1029C000000007000000700C00000600000030004E
:1029D00000000E000000300042000C000000380033
:1029E00042001C00000018006600380000001C00B7
:1029F0006E00700000000F003C01E000000007F8CE
:102A0000107FC000000007E0001F000000000F0062
:102A10000007800000001C002001C00000003800FA
:102A20006000E00000003000C000F0000000700115
:102A30008001F000000060030003B8000000600E99
:102A4000000718000000E01C000E1C000000E03829
:102A5000001C0C000000C07000380E000000C1C057
:102A600000700E000000C38000E006000000C700F8
:102A700003C006000000DC00070007000000F800AB
:102A80000E0007000001F0003C000F000001C00034
:102A900070001B000001C001E00033000001C00312
:102AA000C00073800001C00F0001C3800001C03C62
:102AB000000383800001C0F8000701800001C3E02B
:102AC000001E01800001CF80003C01800001FE005B
:102AD00000F001800001F80001E001C00001E00009
:102AE00003C001C00001C0000F0001C00000C00011
:102AF0003C0001C00000C000780003C00000C0031B
:102B0000E00007C00000C00F80000CC00000C03E05
:102B1000000038C00000C0F8000070C00000C3E032
:102B20000001E0C00000FF00000780C00000FC00C2
:102B3000000F00C00000E000003C00C00000C0002A
:102B400000F000C00000E00003C000C00000E00092
:102B50000F0000E00000E0007C0000E00000E00367
:102B6000F00001E00000601F800003E0000063FC53
:102B700000000EE000007FE000001CE000007E008E
:102B8000000078E0000060000001E0E0000060006C
:102B90000007C0E000007000001F00E000007000AF
:102BA000007C00E00000700003F000E00000300056
:102BB0001F8000E000003001FE0000E00000303F18
:102BC000F00003E000003FFE000006E000003FC010
:102BD00000001CE000003800000038E00000380071
:102BE0000001F0E0000038000003C0E00000380001
:102BF000001F00E00000380000FC00E0000038008A
:102C000003F000E0000018003F8001E0000018071A
:102C1000FC0003E000001FFFE0000EE000001FFCCE
:102C200000001CC000001C00000070C000001C0060
:102C30000001E0C000001C00000780C000000C0084
:102C4000001F00C000000C0000FC01C000000E00CE
:102C500007E001C000000E003F8001C00000060335
:102C6000FC0007800000077FE0000F80000007FEE7
:102C700000001B8000000380000073000000038040
:102C80000001E7000000018000038E00000001C089
:102C9000001E3C00000000E0007878000000007892
:102CA00001F3F8000000003F079F9E000000003F76
:102CB000C38007000000007003E00380000000E014
:102CC000037001C0000000E0031800E0000000C035
:102CD00002000060000000C002000030000000C0E0
:102CE00000000030000001C000000038000001C0FA
:102CF00000080018000001C0001C0018000001C0FE
:102D0000401F0018000001C0C01B8018000000C157
:102D1000E019E018000000C1F0307838000000E34E
:102D2000F8703FF0000000E73FE007F00000007F90
:102D30000FC000800000003C0000000000000018F0
:102D4000000000000000001800000000000000006B
:102D500000000000000000000000202020200020D3
:102D6000000050500000000000002850F850F850BB
:102D7000A00020306030106020002020186010106B
:102D80000000003820605078000020202000000063
:102D90000000102020202020100040202020202093
:102DA00040002070205000000000002020F820206B
:102DB0000000000000001020200000000070000053
:102DC00000000000000000200000102020204040F3
:102DD000800020505050502000006020202020F81B
:102DE0000000205020204070000020501020106073
:102DF00000001030507810380000704060105020F3
:102E000000003040605050600000705010202020C2
:102E100000002050205050200000305050301060F2
:102E20000000000020000020000000001000102022
:102E30000000001020C02010000000700070000092
:102E400000000040201820400000205010200020EA
:102E5000000030484858484038006020507088D8FA
:102E60000000F048704848F000007050404040308A
:102E70000000F048484848F00000F848604048F832
:102E80000000F848604040E000007040405850307A
:102E90000000E848784848E80000702020202070B2
:102EA00000003810105050200000D850607050D8EA
:102EB0000000E040404048F80000D8D8D8A888D8A2
:102EC0000000D868685858E8000030484848483042
:102ED0000000F048487040E0000030484848483062
:102EE0001800F048487048E80000705020105070FA
:102EF0000000F8A8202020700000D848484848303A
:102F00000000D888485050300000D888A8A8A850A1
:102F10000000D850202050D80000D88850202070C1
:102F20000000784810204878000030202020202021
:102F300030008040402020201000602020202020F1
:102F40006000202050000000000000000000000091
:102F500000F8201000000000000000003010707821
:102F60000000C040704848F0000000007040407011
:102F700000001808384848380000000070704030E1
:102F800000001020702020700000000038484838F1
:102F90000830C040704848E80000200060202070E1
:102FA00000002000701010101070C040587050D8F1
:102FB000000060202020207000000000D0A8A8A8F9
:102FC00000000000F04848C80000000030484830C9
:102FD00000000000F048487040E0000038484838E1
:102FE00008180000782020700000000030201060D9
:102FF00000000040F040483000000000D848483849
:1030000000000000C848303000000000D8A8A850D8
:10301000000000004830304800000000D850502028
:1030200020600000785028780000102020602020C8
:1030300010002020202020202000402020302020B0
:1030400040000000002850000000000000000000C8
:103050000000000000000010101010100000100010
:103060000000006C48480000000000000000001450
:1030700014287C287C28505000000010384040382C
:10308000487010100000002050200C700814080038
:1030900000000000001820205448340000000010F8
:1030A00010101000000000000000000808101010B0
:1030B0001010100808000020201010101010102010
:1030C000200000107C1028280000000000000000F4
:1030D000101010FE10101000000000000000000092
:1030E00000181030200000000000007C00000000EC
:1030F000000000000000000000303000000000046C
:1031000004080810102020400000003844444444C3
:1031100044443800000000301010101010107C00E3
:10312000000000384404081020447C0000000038EF
:1031300044041804044438000000000C141424440F
:103140007E040E000000003C2020380404443800B7
:103150000000001C20407844444438000000007CFB
:1031600044040808081010000000003844443844A3
:1031700044443800000000384444443C04087000D3
:10318000000000000030300000303000000000007F
:103190000018180000183020000000000C1060809B
:1031A00060100C000000000000007C007C000000AB
:1031B00000000000C02018041820C000000000001B
:1031C000182404081000300000003844444C5454C3
:1031D0004C40443800000030102828287C44EE0081
:1031E000000000F8444478444444F8000000003CE7
:1031F0004440404040443800000000F0484444440B
:103200004448F000000000FC445070504044FC0072
:103210000000007E22283828202070000000003C9A
:103220004440404E44443800000000EE44447C4496
:103230004444EE000000007C1010101010107C00C0
:103240000000003C0808084848483000000000EE34
:10325000444850704844E6000000007020202020C0
:1032600024247C00000000EE6C6C54544444EE00B6
:10327000000000EE64645454544CEC00000000382C
:103280004444444444443800000000782424243852
:103290002020700000000038444444444444381C5A
:1032A000000000F8444444784844E2000000003440
:1032B0004C40380404645800000000FE92101010C6
:1032C00010103800000000EE4444444444443800E8
:1032D000000000EE4444282828101000000000EEF2
:1032E0004444545454542800000000C6442810108C
:1032F0002844C600000000EE4428281010103800B2
:103300000000007C4408101020447C0000000038BD
:1033100020202020202020203800004020202010C5
:1033200010080808000000380808080808080808FD
:1033300038000010102844000000000000000000C9
:10334000000000000000000000FE00100800000067
:1033500000000000000000000038443C44443E00EF
:10336000000000C0405864444444F80000000000DD
:10337000003C4440404438000000000C04344C44FD
:1033800044443E00000000000038447C40403C00C3
:103390000000001C207C202020207C000000000079
:1033A00000364C4444443C04380000C04058644457
:1033B0004444EE00000000100070101010107C005B
:1033C000000000100078080808080808700000C015
:1033D000405C48705048DC000000003010101010B5
:1033E00010107C000000000000E854545454FE000B
:1033F0000000000000D864444444EE0000000000D7
:1034000000384444444438000000000000D86444BC
:1034100044447840E000000000364C4444443C04FE
:103420000E000000006C302020207C000000000016
:10343000003C44380444780000000000207C202038
:1034400020221C000000000000CC4444444C360004
:103450000000000000EE4444282810000000000096
:1034600000EE4454545428000000000000CC4830C2
:103470003048CC000000000000EE44242818101052
:1034800078000000007C481020447C000000000808
:103490001010101020101010080000101010101044
:1034A0001010101000000020101010100810101044
:1034B0002000000000000024580000000000000070
:1034C00000000000000000000000000000000000FC
:1034D00000000000000000000000000000000000EC
:1034E0000C000C000C000C000C000C000C000C007C
:1034F00000000C00000000000000000000000000C0
:1035000000001DC01DC00880088008800000000069
:1035100000000000000000000000000000000000AB
:103520000D800D800D800D803FC01B003FC01B0033
:103530001B001B001B000000000000000000040036
:103540001F803180318038001E000F0003803180E1
:1035500031803F0004000400000000000000000073
:1035600018002400240018C007801E00318002408B
:103570000240018000000000000000000000000088
:1035800000000F001800180018000C001D80370004
:1035900033001D800000000000000000000000005B
:1035A0000000070007000200020002000000000007
:1035B000000000000000000000000000000000000B
:1035C0000300030006000E000C000C000C000C00B1
:1035D0000E000600030003000000000000000000D1
:1035E000180018000C000600060006000600060081
:1035F00006000C001C001800000000000000000085
:10360000060006003FC03FC00F001F801980000069
:1036100000000000000000000000000000000000AA
:10362000000000000400040004003F8004000400C7
:103630000400000000000000000000000000000086
:10364000000000000000000000000000000000007A
:10365000060004000C000800080000000000000044
:10366000000000000000000000003F80000000009B
:10367000000000000000000000000000000000004A
:10368000000000000000000000000000000000003A
:103690000C000C000000000000000000000000C052
:1036A00000C0018001800300030006000C000C0034
:1036B000180018003000300000000000000000007A
:1036C0000E001B00318031803180318031803180AB
:1036D0001B000E00000000000000000000000000C1
:1036E00006003E0006000600060006000600060072
:1036F00006003FC0000000000000000000000000C5
:103700000F00198031803180030006000C00180082
:1037100030003F80000000000000000000000000BA
:103720003F006180018003001F0003800180018051
:1037300061803F0000000000000000000000000069
:10374000070007000F000B001B00130033003F8031
:1037500003000F80000000000000000000000000D7
:103760001F801800180018001F00118001800180C0
:1037700021801F0000000000000000000000000089
:1037800007801C00180030003700398031803180FC
:1037900019800F0000000000000000000000000081
:1037A0007F004300030006000600060006000C0030
:1037B0000C000C00000000000000000000000000F1
:1037C0001F003180318031801F0031803180318095
:1037D00031801F0000000000000000000000000019
:1037E0001E0033003180318033801D800180030052
:1037F00007003C0000000000000000000000000086
:103800000000000000000C000C00000000000000A0
:103810000C000C0000000000000000000000000090
:103820000000000000000300030000000000000092
:10383000060004000800080000000000000000006E
:10384000000000C00300040018006000180004001D
:10385000030000C0000000000000000000000000A5
:1038600000000000000000007FC000007FC00000DA
:103870000000000000000000000000000000000048
:103880000000600018000400030000C003000400F2
:1038900018006000000000000000000000000000B0
:1038A00000001F0031803180018007000C000C00F7
:1038B00000000C00000000000000000000000000FC
:1038C0000E001100210021002700290029002700F7
:1038D000200011000E0000000000000000000000A9
:1038E00000003F000F000900198019801F8030C0C0
:1038F00030C079E00000000000000000000000007F
:1039000000007F003180318031803F003180318084
:1039100031807F0000000000000000000000000077
:1039200000001F4030C060406000600060006040E8
:1039300030801F00000000000000000000000000B8
:1039400000007F00318030C030C030C030C030C097
:1039500031807F0000000000000000000000000037
:1039600000007F803080308032003E0032003080A6
:1039700030807F8000000000000000000000000098
:1039800000007FC03040304032003E003200300046
:1039900030007C000000000000000000000000007B
:1039A00000001E80318060806000600067C0618020
:1039B00031801F0000000000000000000000000037
:1039C00000007BC03180318031803F803180318088
:1039D00031807BC0000000000000000000000000FB
:1039E00000003FC0060006000600060006000600B4
:1039F00006003FC0000000000000000000000000C2
:103A000000001FC003000300030003006300630005
:103A100063003E0000000000000000000000000005
:103A200000007BC03180330036003C003E00330094
:103A3000318079C00000000000000000000000009C
:103A400000007E00180018001800180018401840E8
:103A500018407FC0000000000000000000000000CF
:103A60000000E0E060C071C07BC06AC06EC064C08E
:103A700060C0FBE00000000000000000000000004B
:103A8000000073C0318039803D80358037803380BD
:103A9000318079800000000000000000000000007C
:103AA00000001F00318060C060C060C060C060C0A6
:103AB00031801F0000000000000000000000000036
:103AC00000007F0031803180318031803F00300044
:103AD00030007E0000000000000000000000000038
:103AE00000001F00318060C060C060C060C060C066
:103AF00031801F000CC01F8000000000000000008B
:103B000000007F003180318031803E003300318001
:103B100031807CE000000000000000000000000098
:103B200000001F803180318038001F000380318009
:103B300031803F0000000000000000000000000095
:103B400000007F804C804C804C800C000C000C00EE
:103B50000C003F000000000000000000000000001A
:103B600000007BC0318031803180318031803180F4
:103B700031801F0000000000000000000000000075
:103B800000007BC0318031801B001B001B000A003D
:103B90000E000E0000000000000000000000000009
:103BA0000000FBE060C064C06EC06EC02A803B8035
:103BB0003B80318000000000000000000000000099
:103BC00000007BC031801B000E000E000E001B00A9
:103BD00031807BC0000000000000000000000000F9
:103BE000000079E030C019800F00060006000600D2
:103BF00006001F8000000000000000000000000020
:103C000000003F8021802300060004000C00188083
:103C100030803F8000000000000000000000000035
:103C200007800600060006000600060006000600E3
:103C300006000600060007800000000000003000BB
:103C40003000180018000C000C00060003000300F0
:103C50000180018000C000C00000000000000000E2
:103C60001E0006000600060006000600060006000C
:103C70000600060006001E00000000000000040010
:103C80000A000A00110020802080000000000000CF
:103C90000000000000000000000000000000000024
:103CA0000000000000000000000000000000000014
:103CB000000000000000000000000000FFE008001D
:103CC00004000200000000000000000000000000EE
:103CD00000000000000000000000000000000000E4
:103CE0000000000000001F00018001801F80318063
:103CF00033801DC000000000000000000000000034
:103D00007000300030003700398030C030C030C023
:103D10003980770000000000000000000000000073
:103D20000000000000001E80318060806000608024
:103D300031801F00000000000000000000000000B3
:103D40000380018001801D803380618061806180FB
:103D500033801DC0000000000000000000000000D3
:103D60000000000000001F00318060C07FC06000C4
:103D700030C01F80000000000000000000000000B4
:103D800007E00C000C003F800C000C000C000C0045
:103D90000C003F8000000000000000000000000058
:103DA0000000000000001DC03380618061806180E0
:103DB00033801D80018001801F0000000000000092
:103DC0007000300030003700398031803180318020
:103DD00031807BC0000000000000000000000000F7
:103DE0000600060000001E00060006000600060091
:103DF00006003FC0000000000000000000000000BE
:103E00000600060000003F0003000300030003005B
:103E100003000300030003003E0000000000000058
:103E2000700030003000378036003C003C00360027
:103E3000330077C000000000000000000000000018
:103E40001E0006000600060006000600060006002A
:103E500006003FC00000000000000000000000005D
:103E60000000000000007F8036C036C036C036C07B
:103E700036C076E0000000000000000000000000F6
:103E800000000000000077003980318031803180EF
:103E900031807BC000000000000000000000000036
:103EA0000000000000001F00318060C060C060C0E2
:103EB00031801F0000000000000000000000000032
:103EC0000000000000007700398030C030C030C0F2
:103ED00039803700300030007C0000000000000016
:103EE0000000000000001DC033806180618061809F
:103EF00033801D800180018007C0000000000000A9
:103F00000000000000007B801CC018001800180092
:103F100018007F000000000000000000000000000A
:103F20000000000000001F8031803C001F00038063
:103F300031803F0000000000000000000000000091
:103F40001800180018007F0018001800180018004A
:103F500018800F00000000000000000000000000BA
:103F6000000000000000738031803180318031809A
:103F700033801DC0000000000000000000000000B1
:103F80000000000000007BC0318031801B001B005E
:103F90000E000E0000000000000000000000000005
:103FA000000000000000F1E060C064C06EC03B8013
:103FB0003B80318000000000000000000000000095
:103FC0000000000000007BC01B000E000E000E0071
:103FD0001B007BC00000000000000000000000008B
:103FE00000000000000079E030C0198019800B004B
:103FF0000F00060006000C003E000000000000005C
:104000000000000000003F80218003000E00180027
:1040100030803F8000000000000000000000000031
:1040200006000C000C000C000C000C0018000C002A
:104030000C000C000C000600000000000000000056
:104040000600060006000600060006000600060040
:104050000600060006000600000000000000000048
:104060000C0006000600060006000600030006001D
:104070000600060006000C00000000000000000022
:104080000000000000000000180024800300000071
:104090000000000000000000000000000000C4E379
:1040A00000000000000000001DC01D803BFF3B071A
:1040B0003F777E76F870FBFEFBFE3F773F773E73DF
:1040C000387038703BE00000000000000000000085
:1040D00000000000000000000000000000000000E0
:1040E00000000000000000000000000000000000D0
:1040F00000000000000000000000000000000000C0
:1041000000000000000000000000000000000000AF
:10411000000000000000000000000000000000009F
:10412000000000000000000000000000000000008F
:10413000000000000000000000000000000000007F
:1041400000000000BAC300000000000000003000C2
:1041500073FF700FFE1E7E3C6E38EE30EFFFFC30BA
:104160007C3038303E307E30E030C1F0000000005E
:10417000000000000000000000000000000000003F
:10418000000000000000000000000000000000002F
:10419000000000000000000000000000000000001F
:1041A000000000000000000000000000000000000F
:1041B00000000000000000000000000000000000FF
:1041C00000000000000000000000000000000000EF
:1041D00000000000000000000000000000000000DF
:1041E00000000000000000000000CAF7000000000E
:1041F00000000000300E300E3FEE30EEFCFF76CEB9
:1042000077FE7BFEFFFEF3DEF3CE37EE3E6E3C0E16
:10421000303E000000000000000000000000000030
:10422000000000000000000000000000000000008E
:10423000000000000000000000000000000000007E
:10424000000000000000000000000000000000006E
:10425000000000000000000000000000000000005E
:10426000000000000000000000000000000000004E
:10427000000000000000000000000000000000003E
:10428000000000000000000000000000000000002E
:10429000DDAE00000000000000000670FFFF3E7071
:1042A00038007FFFE000FFFC3B8C39CCFFFF739CA4
:1042B00071DC7FFF001C01F800000000000000001E
:1042C00000000000000000000000000000000000EE
:1042D00000000000000000000000000000000000DE
:1042E00000000000000000000000000000000000CE
:1042F00000000000000000000000000000000000BE
:1043000000000000000000000000000000000000AD
:10431000000000000000000000000000000000009D
:10432000000000000000000000000000000000008D
:10433000000000000000C5C90000000000000000EF
:10434000E01FFFF03E000E1FCFFBFFF83FFF0FFF07
:104350007FD87FDC6FCEEDFFFDF7F9C000000000D5
:10436000000000000000000000000000000000004D
:10437000000000000000000000000000000000003D
:10438000000000000000000000000000000000002D
:10439000000000000000000000000000000000001D
:1043A000000000000000000000000000000000000D
:1043B00000000000000000000000000000000000FD
:1043C00000000000000000000000000000000000ED
:1043D000000000000000000000000000610000007C
:1043E00000000000000000000000000000003E008F
:1043F000670007800F807F80E380E780E7807F8011
:1044000000000000000000000000000000000000AC
:10441000000000000000000000000000000000009C
:10442000000000000000000000000000000000008C
:10443000000000000000000000000000000000007C
:10444000000000000000000000000000000000006C
:10445000000000000000000000000000000000005C
:10446000000000000000000000000000000000004C
:10447000000000000000000000000000000000003C
:1044800000006200000000000000000070007000EA
:10449000700070007F007B8071C071C071C071C0FE
:1044A00071C07B807F000000000000000000000061
:1044B00000000000000000000000000000000000FC
:1044C00000000000000000000000000000000000EC
:1044D00000000000000000000000000000000000DC
:1044E00000000000000000000000000000000000CC
:1044F00000000000000000000000000000000000BC
:1045000000000000000000000000000000000000AB
:10451000000000000000000000000000000000009B
:104520000000000000000000630000000000000028
:10453000000000000000000000003F007300F000D9
:10454000E000E000E000F00073003F000000000029
:10455000000000000000000000000000000000005B
:10456000000000000000000000000000000000004B
:10457000000000000000000000000000000000003B
:10458000000000000000000000000000000000002B
:10459000000000000000000000000000000000001B
:1045A000000000000000000000000000000000000B
:1045B00000000000000000000000000000000000FB
:1045C00000000000000000000000000000004100AA
:1045D000000000000000000000000E001F001F008F
:1045E0001F003B803B8071807FC071C0E0E0E0E055
:1045F000E0E00000000000000000000000000000FB
:1046000000000000000000000000000000000000AA
:10461000000000000000000000000000000000009A
:10462000000000000000000000000000000000008A
:10463000000000000000000000000000000000007A
:10464000000000000000000000000000000000006A
:10465000000000000000000000000000000000005A
:10466000000000000000000000000000000000004A
:1046700000000000C4E30000000000000000000093
:10468000000000000000000000000000000000002A
:10469000000001C1C00001E3E00003E3C00003C764
:1046A000800003C7FFFF078FFFFF078F000F0F1E5C
:1046B000001E0F3C1E1E1F3C1E3E1F181E3C3F00CE
:1046C0001E1C7F001E007F079E70FF079EF0EF0FED
:1046D0009E786F0F1E780F0F1E3C0F1E1E3C0F1E84
:1046E0001E1E0F3C1E1E0F3C1E1F0F7C1E0F0F7840
:1046F0001E0E0F001E000F001E000F003C000F07D3
:10470000FC000F07F800000000000000000000009F
:1047100000000000000000000000BAC3000000001C
:104720000000000000000000000000000000000089
:10473000000000000F0000000F0000000F07FFFE48
:104740000F07FFFE0F00003E1E0000FCFFF801F007
:10475000FFF803E01E7807C01E780F803C780F003A
:104760003C780F003C780F003C780F003C7FFFFF47
:1047700078FFFFFF78F00F0078F00F003DE00F00AA
:104780001FE00F000FE00F0007C00F0007E00F0051
:1047900007F00F000FF80F001E7C0F003C380F00D1
:1047A00078000F00F003FF006001FE000000000031
:1047B00000000000000000000000000000000000F9
:1047C000CEA2000000000000000000000000000079
:1047D00000000000000000000000030701E0078760
:1047E00001E0070701C00FF779C01EF77BC01EF775
:1047F0007B803CF77BFF78F77BFFF8F77F9EF7FF26
:10480000FF9E67FFFF9E07007F9C0F000F9C1E000E
:104810001F9C1E7FFFBC3E7FF3FC3E0003FC7E001E
:1048200001F8FE0001F8FE7FE1F8DE7FE1F81E7876
:10483000E0F01E78EEF01E78FFF01E78FDF81E798D
:10484000FBFC1EF1F7BC1EF0EF9E1FE00F0F1EC019
:104850001E0F1E000C0700000000000000000000FA
:10486000000000000000C8ED000000000000000093
:1048700000000000000000000000000003C07800FD
:1048800007807800078078000780F0000F00F000B4
:10489000FFFFFFFFFFFFFFFF1E03C01F1E03C01E21
:1048A0001FE78F3E3DE78F3C3DEF0F7C3DE70F78E4
:1048B00079E00F0079E00E007FFE0E007FFE1F0002
:1048C00001E01F0001E01F0001E01F8001E01F80E8
:1048D00001E03F8001FF3FC00FFF7BC0FFF079E0A8
:1048E000F9E0F1F001E1F0F001E3E0F801E7C07C6C
:1048F00001FF803F01FF001F01EC000E00000000DF
:10490000000000000000000000000000D1C5000011
:104910000000000000000000000000000000000097
:10492000000000000000000077000000FF007FFC96
:10493000F7807FFDE3C001C1E3C001C3C1803DC773
:10494000FFFF39C7FFFF39CF838079DF838079FF8D
:10495000838079DF838071C383807FFFFFFE7FFFC9
:10496000FFFE03C3838007C3838007C383800FC315
:1049700083800FC383801FC3FFFE1DC3FFFE3DC3A3
:10498000838079C38380F1C38380F1C3838061C353
:10499000838001C3FFFF03C3FFFF1FC380001F838A
:1049A0008000000000000000000000000000000087
:1049B0000000BADA00000000000000000000000063
:1049C00000000000000000000000000000000000E7
:1049D000000000001FFFFFFC1FFFFFFC1E03C03C88
:1049E0001EC3C73C1FE3C7BC1EF3CF3C1EFBDF3C0E
:1049F0001E7BDE3C1E33DC3C1E03C03C1FFFFFFC65
:104A00001FFFFFFC1E03C03C0003C0000003C000EA
:104A10003FFFFFFC3FFFFFFC0003C0000003C0009E
:104A20000003C000FFFFFFFFFFFFFFFF00000000CB
:104A30001C3870703E78F8F83C7C787C7C3C3C3EBE
:104A4000F83E3C1FF01C180E0000000000000000A3
:104A50000000000000000000B4CB000000000000D7
:104A60000000000000000000000000000000000046
:104A700000000000000000783C0000783C00007856
:104A80003C0000783C0000783C0000783C0C3C780E
:104A90003C1E3C783C3F3C783CF83C7FFDF03C7F42
:104AA000FFE03C783F803C783E003C783C003C781E
:104AB0003C003C783C003C783C003C783C003C7836
:104AC0003C003C783C0E3C783C0F3C783C0F3C79F9
:104AD000FC0F3C7FFC0F3FFF3C0F3FF03E1EFF00F2
:104AE0001FFEF0000FFC00000000000000000000AE
:104AF0000000000000000000000000000000D7D609
:104B000000000000000000000000000000000000A5
:104B10000000000000038000000780000003C000C8
:104B20000003E0000001E0007FFFFFFE7FFFFFFECB
:104B30007800001E7800001E7800001E7800001E1D
:104B40007BFFFFDE03FFFFC000000FC000003F003F
:104B500000007E000001F8000001E0000001E0001C
:104B6000FFFFFFFFFFFFFFFF0001E0000001E0008B
:104B70000001E0000001E0000001E0000001E000B1
:104B80000003E0000003C00000FFC00000FF800041
:104B90000000000000000000000000000000000015
:104BA00000000000CCE50000000000000000000054
:104BB00000000000000000000000000000000000F5
:104BC000000003C03C0003C03C0003C03C00078061
:104BD0003C0007803C0007803C000FFFFFFF0FFFF9
:104BE000FFFF1F01FE001F01FF003F01FF003F0309
:104BF000FF007F03FF807F07BF80FF07BFC0EF0F6D
:104C00003DC0CF0F3DE00F1E3DE00F1E3CF00F3CBE
:104C10003C780F7C3C7C0FF83C3E0FF7FFDF0FE742
:104C2000FFCF0FC03C060F003C000F003C000F0000
:104C30003C000F003C000F003C00000000000000A2
:104C400000000000000000000000CFC200000000D3
:104C50000000000000000000000000000000000054
:104C6000000000000000000000000000FFFFFFFF48
:104C7000FFFFFFFF000F8000000F8000000F80008B
:104C8000000F8000000F8000000F8000000FE00088
:104C9000000FF800000FFC00000FBF00000F9F8006
:104CA000000F87E0000F83F0000F80F8000F807C7A
:104CB000000F8038000F8000000F8000000F800080
:104CC000000F8000000F8000000F8000000F8000A8
:104CD000000F8000000F8000000F80000000000027
:104CE00000000000000000000000000000000000C4
:104CF000B6D400000000000000000000000000002A
:104D000000000000000000000000000000000000A3
:104D1000007800000078000000787FFC00787FFCBD
:104D20000078003C0078003FFFFF303FFFFF783CF9
:104D300000783C3800783E7800781E78C0780F798B
:104D4000E0780FF0F07807F0F87803F0787801E079
:104D50003C7803F03E7803F0187807F8007807FCF9
:104D600000780F3E00781F1E00783E1F00787C0EF2
:104D700000F8F80000F0F0003FF060003FE00000B5
:104D80000000000000000000000000000000000023
:104D9000000000000000D3A600000000000000009A
:104DA0000000000000000000000000000001C00042
:104DB0000003E0000001E0000001F0000000F0004E
:104DC0001FFFFFFF1FFFFFFF1E0000001E0000006F
:104DD0001E01E0781E01E0781EE1E0781FF1F0F896
:104DE0001EF0F0F01EF0F0F01EF8F0F01E78F1F07A
:104DF0001E78F9E01E7879E01E7C7BE01E3C7BC0CB
:104E00001E3C7BC01E3C7BC03C3E07803C1C078098
:104E10003C0007803C000F0078000F007BFFFFFF85
:104E2000F3FFFFFFF0000000600000000000000042
:104E3000000000000000000000000000B5C40000F9
:104E40000000000000000000000000000000000062
:104E500000000000000003803C0007C03E00078007
:104E60003C0007807C000F0078007FFE7FFE7FFE05
:104E7000FFFE781EF01E781FE01E781FE01E781FD0
:104E8000C01E781FC01E781FF01E781EF81E781EE8
:104E90007C1E7FFE3C1E7FFE1E1E781E1F1E781E7F
:104EA0000F9E781E079E781E071E781E001E781E15
:104EB000001E781E003E781E003C781E003C7FFEDF
:104EC000003C7FFE007C781E3FF8781E3FF000001B
:104ED00000000000000000000000000000000000D2
:104EE0000000B5E30000000000000000000000002A
:104EF0000000000000000000000000000003C000EF
:104F00000003C0000003C0000003C0000003FFFF57
:104F10000003FFFF0003C0000003C0000003C00047
:104F20000003C0000FFFFFF80FFFFFF80F0000782D
:104F30000F0000780F0000780F0000780F00007855
:104F40000F0000780FFFFFF80FFFFFF80F00007849
:104F5000000000000C3838301E7C78783E3C7878B1
:104F60003C3C3C3C7C3E3C3EF81E3C1EF01E1E1F62
:104F7000701E1C0E00000000000000000000000079
:104F80000000000000000000D5F300000000000059
:104F90000000000000000000000000000000000011
:104FA000000000003C00000078007FF078007FF0F7
:104FB000780079FFFFFF79FFFFFF79E1E00079E1F9
:104FC000E0007BC1EF807BC3CF807BC3CF807F8736
:104FD000CF807F878F807F878F807BCF0F807BCF35
:104FE000FFFE79EFFFFE79E00F8078E00F8078F028
:104FF0000F8078F00F8078F00F8078FFFFFF79FF47
:10500000FFFF7FE00F807FC00F8078000F80780067
:105010000F8078000F8078000F8078000F800000EC
:105020000000000000000000000000000000CEAA08
:105030000000000000000000000000000000000070
:1050400000000000000000000000000000078000D9
:105050000E0780001F0780000F87800007C78000B1
:1050600001E7800000C78000000780007FFFFFFC91
:105070007FFFFFFC0007803C000F803C000F003CDE
:10508000000F003C000F603C001FF03C001E783C0D
:10509000003E3C3C003C3E3C007C1F3C00780F3C0A
:1050A00000F8063C01F0003C03E0007C07C0007CF7
:1050B0000F8000781F0000F83E00FFF07C00FFE04A
:1050C00038000000000000000000000000000000A8
:1050D00000000000CAF7000000000000000000000F
:1050E00000000000000000000000000000000000C0
:1050F00000000F0000380F0000380F0000380F3F8D
:10510000F8380F3FF8380F007838FFE07FFFFFE0F6
:105110007FFF0F0070380F18F0381F3CF0381F1C4D
:10512000FE381FDEFE383FEFEF383FFFEF383FF726
:10513000E7B87F67C7B87F03C3B8FF07E038EF075A
:10514000E038EF0FF038CF1FF0380F1E78380F3CE3
:105150007C380F783C380FF838380F6000780F0033
:105160000FF80F0007F00F00000000000000000023
:1051700000000000000000000000DDAE00000000A4
:10518000000000000000000000000000000000001F
:1051900000000000003C1E00003C1E00003C1E0001
:1051A000FFFFFFFFFFFFFFFF003C1E0007BC1E00CC
:1051B000078000000FFFFFFC0FFFFFFC1E00000038
:1051C0003C0000003C0000007FFFFFF0F7FFFFF015
:1051D000378380F00787C0F00783F0F00700E0F026
:1051E000FFFFFFFFFFFFFFFF0F0F00E00F0F81E04A
:1051F0000E03E1E01E01C1E01FFFFFFE1FFFFFFEE7
:10520000000001E0000003C00000FFC00000FF80BC
:10521000000000000000000000000000000000008E
:10522000C5C90000000000000000000000000000F0
:105230000000000000000000000000000000380036
:10524000003E7C003FFE3F3FFFF01FBFE00007BC79
:105250000000033C0000003C003C003C0FFE703DA1
:10526000FFF8F83DFF007C3DE7803F3DE7801F3DB4
:10527000E78E0E3DE79F003DE7FE0039E7F8003975
:10528000E3F01C39E3C01E79E3C01E79E1E01E792A
:10529000E1E03C79E0F03C79E0F83CF1E07C3CF185
:1052A000E37C7DF1EF3F79E1FE1F7BE1F80E7BC3EC
:1052B000E0007981C0000000000000000000000054
:1052C000000000000000410000000000000000009D
:1052D00000000000000000000000000000000000CE
:1052E0000000000000000000007C000000FC000046
:1052F00000FE000000FE000001FF000001FF0000B2
:1053000001EF000003EF800003CF800007C780009B
:1053100007C7C0000787C0000F83E0000F83E000CD
:105320000F01E0001FFFF0001FFFF0003FFFF8003B
:105330003E00F8003C00F8007C007C007C007C0013
:1053400078003C00F8003E00F8003E00000000003D
:10535000000000000000000000000000000000004D
:1053600000000000000000000000000061000000DC
:10537000000000000000000000000000000000002D
:10538000000000000000000000000000000000001D
:10539000000000000000000000000000000000000D
:1053A0000000000000000000000007F800001FFEE1
:1053B00000003FFE00003E3F0000381F0000000FCD
:1053C0000000000F000003FF00001FFF00003F8FE0
:1053D00000007C0F00007C0F0000781F00007C1F85
:1053E00000007E7F00007FFF00003FFF00000FCF26
:1053F00000000000000000000000000000000000AD
:10540000000000000000000000000000000000009C
:10541000000062000000000000000000000000002A
:10542000000000000000000000000000000000007C
:105430003C0000003C0000003C0000003C0000007C
:105440003C0000003C0000003C0000003C0000006C
:105450003CFE00003DFF80003FFFC0003F8FC000CA
:105460003F07E0003E03E0003E03E0003C01E000B7
:105470003C01E0003C01E0003C03E0003E03E000B2
:105480003E03E0003F07C0003F8FC0003FFF8000A9
:105490003FFF00003CFC0000000000000000000096
:1054A00000000000000000000000000000000000FC
:1054B0000000000000000000630000000000000089
:1054C00000000000000000000000000000000000DC
:1054D00000000000000000000000000000000000CC
:1054E00000000000000000000000000000000000BC
:1054F00000000000000001FC000007FE00001FFE8D
:1055000000003F8600003E0000007C0000007C00A0
:1055100000007C00000078000000780000007C00A3
:1055200000007C0000007C0000003E0000003F8680
:1055300000001FFE00000FFE000003FC0000000042
:10554000000000000000000000000000000000005B
:105550000000000000000000000000000000CEA2DB
:10556000000000000000000000000000000000003B
:105570000000000000000000030701E0078701E0D1
:10558000070701C00FF779C01EF77BC01EF77B80AD
:105590003CF77BFF78F77BFFF8F77F9EF7FFFF9ED6
:1055A00067FFFF9E07007F9C0F000F9C1E001F9C43
:1055B0001E7FFFBC3E7FF3FC3E0003FC7E0001F833
:1055C000FE0001F8FE7FE1F8DE7FE1F81E78E0F0F2
:1055D0001E78EEF01E78FFF01E78FDF81E79FBFCB9
:1055E0001EF1F7BC1EF0EF9E1FE00F0F1EC01E0F36
:1055F0001E000C070000000000000000000000007A
:1056000000000000D1A90000000000000000000020
:10561000000000000000000000000000000000008A
:105620000000000000001FFFFFF81FFFFFF800034D
:10563000C0000003C0007FFFFFFE7FFFFFFE780376
:10564000C01E7803C01E7FFFFFFE7FFFFFFE00032A
:10565000C0000003C00007FFFFE007FFFFE00003FA
:10566000C000000000001FFFFFF81FFFFFF8000050
:105670000078000000781FFFFFF81FFFFFF8000010
:10568000007800000078000000783FFFFFF83FFF3F
:10569000FFF800000078000000000000000000009B
:1056A00000000000000000000000B5E7000000005E
:1056B00000000000000000000000000000000000EA
:1056C0000000000000078000000780000007800045
:1056D000000780007FFFFFF87FFFFFF8780780F862
:1056E000780780F8780780F8780780F8780780F8DE
:1056F000780780F87FFFFFF87FFFFFF8780780F8D2
:10570000780780F8780780F8780780F8780780F8BD
:10571000780780F87FFFFFF87FFFFFF87807800E9B
:105720007807800F0007800F0007800F0007801F99
:105730000007801E0003FFFE0001FFFC00000000C8
:105740000000000000000000000000000000000059
:10575000D7D300000000000000000000000000009F
:105760000000000000000000000000000000000039
:1057700000001FFFFFF81FFFFFF8000001F8000006
:1057800007E000000FC000001F8000003E00000086
:10579000FC000001F8000003E0000003E00000034B
:1057A000E000FFFFFFFFFFFFFFFF0003E00000033B
:1057B000E0000003E0000003E0000003E00000035D
:1057C000E0000003E0000003E0000003E00000034D
:1057D000E0000003E0000003C00001FFC00000FF84
:1057E0008000000000000000000000000000000039
:1057F000000000000000000044656275673A205018
:1058000061696E745F44726177537472696E675F29
:10581000454E20496E7075742065786365656473C4
:1058200020746865206E6F726D616C20646973709E
:105830006C61792072616E67650D0A00446562755E
:10584000673A205061696E745F4472617743697290
:10585000636C6520496E7075742065786365656456
:105860007320746865206E6F726D616C206469735B
:10587000706C61792072616E67650D0A000000002E
:10588000A0580008000000204C000000B8260008C6
:10589000EC5800084C00002004450000C826000811
:1058A0000100000010000000000000000024F400CF
:1058B000522D0008050008004A30000807000C00BF
:1058C000BE3400080B0010009E40000809000B00C9
:1058D00010001500744600081B0018002000290065
:0C58E000000000000000000000000000BC
:04000005080000ED02
:00000001FF
